:020000040800F2
:20000000000008240D650008696400087164000879640008816400088964000800000000C1
:20002000000000000000000000000000916400089F64000800000000AD640008BB64000878
:200040005D6500085D6500085D6500085D6500085D6500085D6500085D6500085D65000850
:200060005D6500085D6500085D6500085D650008C9640008DD6400085D6500085D65000846
:200080005D6500085D6500085D6500085D6500085D6500085D6500085D6500085D65000810
:2000A0005D6500085D6500085D6500085D6500085D6500085D6500085D6500085D650008F0
:2000C0005D6500085D6500085D6500085D6500085D6500085D6500085D6500085D650008D0
:2000E0005D6500085D650008000000005D6500085D6500085D6500085D6500085D6500087A
:200100005D6500085D6500085D6500085D6500085D6500085D6500085D6500085D6500088F
:200120005D6500085D6500085D6500085D6500085D6500085D6500085D6500085D6500086F
:200140005D6500085D65000800000000000000005D6500085D6500085D6500085D650008E3
:200160005D6500085D6500085D6500085D6500085D6500085D6500085D6500085D6500082F
:200180005D6500085D6500085D6500085D6500085D6500085D6500085D650008F16400087C
:2001A0005D6500085D6500085D6500085D6500085D6500085D6500085D6500085D650008EF
:2001C0005D6500085D6500085D6500085D6500085D6500085D6500085D6500085D650008CF
:2001E0005D6500085D6500085D6500085D6500085D6500085D6500085D6500085D650008AF
:200200005D6500085D6500085D6500085D6500085D6500085D6500085D6500085D6500088E
:200220005D6500085D6500085D6500085D6500085D6500085D6500085D6500085D6500086E
:200240005D6500085D6500085D6500085D6500085D6500085D6500085D6500085D6500084E
:200260005D6500085D6500085D6500085D6500085D6500085D6500085D6500085D6500082E
:200280005D6500085D6500085D650008000000005D6500085D65000810B5054C237833B9CF
:2002A000044B13B10448AFF300800123237010BD981100240000000060FB000808B5034BFE
:2002C0001BB103490348AFF3008008BD000000009C11002460FB000881F0004102E000BF4D
:2002E00083F0004330B54FEA41044FEA430594EA050F08BF90EA020F1FBF54EA000C55EA19
:20030000020C7FEA645C7FEA655C00F0E2804FEA5454D4EB5555B8BF6D420CDD2C4480EAF7
:20032000020281EA030382EA000083EA010180EA020281EA0303362D88BF30BD11F0004FA7
:200340004FEA01314FF4801C4CEA113102D0404261EB410113F0004F4FEA03334CEA1333BC
:2003600002D0524263EB430394EA050F00F0A780A4F10104D5F1200E0DDB02FA0EFC22FA42
:2003800005F2801841F1000103FA0EF2801843FA05F359410EE0A5F120050EF1200E012A36
:2003A00003FA0EFC28BF4CF0020C43FA05F3C01851EBE37101F0004507D54FF0000EDCF13C
:2003C000000C7EEB00006EEB0101B1F5801F1BD3B1F5001F0CD349085FEA30004FEA3C0C2B
:2003E00004F101044FEA445212F5800F80F09A80BCF1004F08BF5FEA500C50F1000041EB3F
:20040000045141EA050130BD5FEA4C0C404141EB0101013C28BFB1F5801FE9D291F0000F65
:2004200004BF01460020B1FA81F308BF2033A3F10B03B3F120020CDA0C3208DD02F1140CD5
:20044000C2F10C0201FA0CF021FA02F10CE002F11402D8BFC2F1200C01FA02F120FA0CFC5B
:20046000DCBF41EA0C019040E41AA2BF01EB0451294330BD6FEA04041F3C1CDA0C340EDC04
:2004800004F11404C4F1200220FA04F001FA02F340EA030021FA04F345EA030130BDC4F166
:2004A0000C04C4F1200220FA02F001FA04F340EA0300294630BD21FA04F0294630BD94F0DF
:2004C000000F83F4801306BF81F480110134013D4EE77FEA645C18BF7FEA655C29D094EAEF
:2004E000050F08BF90EA020F05D054EA000C04BF1946104630BD91EA030F1EBF0021002067
:2005000030BD5FEA545C05D14000494128BF41F0004130BD14F580043CBF01F5801130BD13
:2005200001F0004545F0FE4141F470014FF0000030BD7FEA645C1ABF194610467FEA655C5E
:200540001CBF0B46024650EA013406BF52EA033591EA030F41F4002130BD00BF90F0000F61
:2005600004BF0021704730B54FF4806404F132044FF000054FF0000150E700BF90F0000FA0
:2005800004BF0021704730B54FF4806404F1320410F0004548BF40424FF000013EE700BF97
:2005A00042004FEAE2014FEA31014FEA02701FBF12F07F4393F07F4F81F06051704732F0D9
:2005C0007F4208BF704793F07F4F04BF41F40021704730B54FF4607401F0004521F0004137
:2005E0001CE700BF50EA010208BF704730B54FF000050AE050EA010208BF704730B511F0CA
:20060000004502D5404261EB41014FF4806404F132045FEA915C3FF4D8AE4FF003025FEAE0
:20062000DC0C18BF03325FEADC0C18BF033202EBDC02C2F1200300FA03FC20FA02F001FAE8
:2006400003FE40EA0E0021FA02F11444BDE600BF80B400AF3D4BD3F888303C4A43F470037B
:20066000C2F88830394B1B69384A43F010031361374B1B6803F00F03062B07D8344B1B68A8
:2006800023F00F03324A43F007031360314B1B68304A43F0010313602E4B00221A612D4B58
:2006A0001A682C492C4B13400B60294B1B6803F00803002B07D0264B1B6823F00F03244A90
:2006C00043F007031360234B00229A61214B0022DA61204B00221A621E4B204A9A621D4BD6
:2006E0001F4ADA621B4B1F4A1A631A4B00225A63184B1C4A9A63174B0022DA63154B194A7B
:200700001A64144B00225A64124B1B68114A23F4802313600F4B00221A66134B5B6A124A39
:2007200043F480435362114B1A68114B1340B3F1005F02D20F4B01221A600F4B43F2D2024C
:200740001A6000BFBD465DF8047B704700ED00E000200052004402587FEDF6EA00020202A3
:200760000000FF0180020101C00000580010005C0000FFFF088100510040005280B584B09E
:2007800000AF786039600023FB603B6801221A603B6810225A603B6801229A603B68002267
:2007A000DA604FF6FF72396878680EF001F8012005F068FF3B6802221A603B6810225A6084
:2007C0003B6801229A603B680022DA604FF6FF72396878680DF0ECFF3B6803221A603B6856
:2007E00010225A603B6808229A603B680022DA604FF6FF72396878680DF0DAFF4FF40C7378
:20080000FB603B6804221A603B6810225A603B6801229A60FA683B68DA604FF6FF72396855
:2008200078680DF0C5FF4FF4667178680DF0F5FF00BF1037BD4680BD80B483B000AF0023AD
:200840007B600CE00B4A7B68002142F823100A4A7B68002142F823107B6801337B607B6871
:200860003F2BEFDD00BF00BF0C37BD465DF8047B704700BF000000240001002400000000EB
:20088000D0ED006A90ED016AB7EEE67AB4EEE66AB7EEC60AF1EE10FA9FED076B04D5A0EE8F
:2008A000067BB7EEC70B7047A7EE060BB7EEC00B704700BFAFF300806E3480B74082DA3F27
:2008C00070EE607AE7EE810AB0EE600A704700BFFDEEC07A17EE902AF6EEC07A70EE677AC1
:2008E000531E07EE103AB8EEC77AB5EEC07AF1EE10FA48BF5B189B00034400EB820093ED52
:20090000000A90ED007A37EE407AA7EE270A704760EE006AD0ED014AB0EE005AD0ED037A88
:20092000B0EE083A90ED024A20EE267AD0ED005A74EEE77AF6EE003A37EE076A30EE070AA3
:20094000F7EE002A37EE667AA6EEC50AB0EE465A75EEC45A27EE237AA6EEC35A96EE836A8D
:2009600027EE800A20EE230A75EE227AA7EE840AA5EE870AA6EE240A704700BF816842688C
:200980000368C16080ED000A82604360704700BFF7EE007A002380ED000AC0ED010A87EE33
:2009A000A07AC0ED027A036180ED051AC0ED061A80ED037A704700BFD0ED047A9FED257A71
:2009C000F0EE676A00B5D0EE006A2DED028BB0EE408A83B0E6EE877AF5EEC07AC0ED047A2C
:2009E000F1EE10FA2DDBF1EEE76AD0ED007AF4EEE67AF1EE10FA21D536EEE76AD0ED035AEF
:200A0000E5EE867AB0EE677AC7EE267A90ED020AB4EEE70A77EEC07AF1EE10FACCBF90ED83
:200A2000057A90ED067AA7EE870A80ED020A20EE080A03B0BDEC028B5DF804FBF7EE007ADF
:200A4000E4E7B0EE670A01900EF0B2F80198F0EE406ACAE76F12833AB7EE007AF6EE006A06
:200A600077EE417A67EEA67AF4EEC07AF1EE10FA18DC31EE071A21EE261AB4EEC01AF1EEFE
:200A800010FA02DBB0EE600A704777EE607A30EE410A37EE417A67EE807AC7EE876A36EE0F
:200AA000A00A704780EEA77A27EE000A704700BF00291ADD70B5051F002605EB8101AE46BC
:200AC00030465EF8044F2B464FF0000C53F8042F944208BF0CF1010C8B42F7D1664501DAFB
:200AE000664620468E45ECD170BD0020704700BF80B588B000AF78600B46FB704FF07A53D5
:200B0000FB614FF07E53BB61FB7883F00103DBB2002B05D04FF07653FB614FF07E53BB6146
:200B20004FF480533B6100237B612DE07B6907EE903AF8EEE76A3B69013B07EE903AB8EED8
:200B4000E77AC6EE877AB7EE007A77EE677AC7ED037A97ED067AD7ED077AC7EE276AD7ED96
:200B6000030AB0EE660A0EF03FF9B0EE407A7B699B007A681344D7ED077A67EE277AC3ED29
:200B8000007A7B6901337B617A693B699A42CDDB3B69013B18462037BD4680BD80B58CB096
:200BA00000AF78600B46FB704FF07A53FB624FF07E53BB62FB7883F00103DBB2002B05D0E5
:200BC0004FF07653FB624FF07E53BB622823BB612F4A07F1080307CA83E8070000237B625D
:200BE00000233B620023FB6145E0FB695B4207EE903AF8EEE77AF2EE086A87EEA67AF0EEC5
:200C0000470AB0EE000A0EF0EFF8B0EE407AD7ED0A7A67EE877AC7ED057A97ED057AD7ED06
:200C20000B7AB4EEE77AF1EE10FA29D43B6A9B007A6813447A691A603B6A01333B623B6A55
:200C4000012B03D1FB690533FB6114E07B6A9B0030333B4453F8283CFA691344FB617B6A9C
:200C60005A1C0C4B83FB0231D317C91A0B465B000B44D31A7B623A6ABB699A42B5DB00E050
:200C800000BF3B6A013B18463037BD4680BD00BF78FB00085655555580B588B000AF78602C
:200CA0000B46FB704FF07A53FB614FF07E53BB61FB7883F00103DBB2002B05D04FF0765365
:200CC000FB614FF07E53BB616423FB6000237B6129E07B695B4207EE903AF8EEE77AF2EE3B
:200CE000086A87EEA67AF0EE470AB0EE000A0EF07BF8B0EE407AD7ED067A67EE877AC7EDFF
:200D0000027A97ED027AD7ED077AB4EEE77AF1EE10FA0DD47B699B007A681344BA681A60F1
:200D20007B6901337B617A69FB689A42D1DB00E000BF00233B611AE03B697F3B07EE903A7C
:200D4000F8EEE77AF2EE086A87EEA67AF0EE470AB0EE000A0EF048F8F0EE407A084A3B69C2
:200D60009B001344C3ED007A3B6901333B613B697F2BE1DD7B69013B18462037BD4680BDC2
:200D8000E099012480B58AB000AF78600B46FB704FF078537B624FF07E533B62FB7883F089
:200DA0000103DBB2002B05D04FF076537B624FF07E533B6214237B610C233B610023FB61B3
:200DC0000023BB612DE0BB695B4207EE903AF8EEE77AF2EE086A87EEA67AF0EE470AB0EE4C
:200DE000000A0EF001F8B0EE407AD7ED087A67EE877AC7ED037A97ED037AD7ED097AB4EEE3
:200E0000E77AF1EE10FA11D4FB699B007A681344FA681A60FB690133FB61BA693B6913447D
:200E2000BB61FA697B699A42CDDB00E000BFFB69013B18462837BD4680BD00BF80B500AFEC
:200E400000210E48FFF754FE03460D4A136000210C48FFF721FF0346094A536000210A4873
:200E6000FFF79CFE0346064A936000210748FFF789FF0346024AD36000BF80BDDC5901244A
:200E80004C5701244C580124AC5701245C570124DFED0D7A20EE270AFDEEC07A17EE903A3B
:200EA000F6EEC07A70EE677A5A1C00EB8303C2F3090293ED000A00EB820090ED007A37EE1B
:200EC000407AA7EE270A70470000804410B52DED028B96B004465422124901A8B0EE408A39
:200EE000F0EE608A0DF0F6FDB0EE007AC4EBC404F1EE0C7A87EE280A28EE278ABDEEC88ADB
:200F000018EE103A062BD4BFE418063416AB03EB840454ED157A20EE270A16B0BDEC028B45
:200F200010BD00BF84FB000880B400AF00BFBD465DF8047B704700BF294AD2ED007AF4EE21
:200F4000607AF1EE10FA36D1264BF7EE006A264A93ED007AD2ED007A9FED246A70EEE70AFB
:200F600037EE067A87FE667AE0EE877A83ED007A88B3F7EE006AB0EE677A77EEE65AF0EE22
:200F8000667AF7EE006A1A4B21EE001AB0EE005AB0EE086A81FE661A61EE016AA1EE456A95
:200FA00066EE866AE6EEA57AA6EEE57AC3ED007A83ED017A7047C2ED000A70EEE70A9FEDA7
:200FC0000B7A0949074BC1ED007AE0EE877A83ED007A0028CDD1B7EE007A77EE675AD0E745
:200FE00038110024F4DB01243C11002452499D39E8DB012438B5194A0146194BD2ED007A92
:20100000D3ED006A174DE7EE806A174C2846F6EEE67A76EEE76AB0EE660AC3ED006AFFF79B
:2010200037FFF0EE407A05F58050B0EE660A60EEA77AFDEEE77A17EE903A01EB83031B688B
:201040002360FFF725FF60EE800AFDEEE00A10EE903A01EB83010B68636038BDCC5501249D
:20106000F0DB0124E0BB0124E8DB0124114AB7EE007A114B00EB8100D2ED006AB0EE601A55
:20108000D3ED007A0D4AE6EE807AD0ED000A1078F4EEC77AF1EE10FA04DD77EEC77A80F09F
:2010A00001001070B6EEE77A37EEC70A83ED000AFFF742BFD0550124F0DB0124F8DB012411
:2010C000B0EEC00A90ED037AD0ED017A9FED2F6AB4EEC07A9FED2E4ADFED2E6A30EE475A4E
:2010E000DFED2D4A70EE675AF1EE10FA0368F4EEC07A58BFB0EE446AF1EE10FAA5EE067ABF
:2011000058BFF0EE646AE5EEA67A80ED037AC0ED017ACBB1B0EE026ADFED206A67EE867AD6
:20112000C7FEA67AB4EEE77AF1EE10FA23DB037DF7EE007A002283F0010380FEE70A026097
:20114000037580ED020A7047DFED156A90ED026A67EEA67AB4EEE77AF1EE10FA08D970EE13
:20116000860AF7EE007A80FEE70A80ED020A704701230360F3E7D0ED027A70EEA70AF7EE53
:20118000007A80FEE70A80ED020A7047F028273D008088390068DA3900C02E386F12833A9A
:2011A0006666663F08B5034601EB8201B6EE000A0C4AD3ED007AB7EE001A93ED017A0A48FF
:2011C00077EE877AD1ED003AD2ED000A27EE800AFFF776FFF0EE630A007DBDE80840FFF733
:2011E000ABBE00BF0457012404DC0124284AF6EEE00A284BD2ED006A92ED017AB0EE664A1E
:20120000D3ED005AF0EE474A93ED016A224B234893ED005AD0ED003A214810B4214CD4ED56
:20122000007A97EEA54AD6EE274AF7EE005AB2EE046AF0EE657AE5EE046AA4EE857AE3EEDE
:20124000867AB0EE666AF0EE476A27EE867A82ED006A66EEA77A87FE657A27EE207AC7FE56
:20126000E57A67EEA07ABDEEC77AFDEEE77A17EE103A17EE904A01EB830301EB84015DF802
:20128000044B1B68C2ED016A03600B6843607047FCDB01244456012408570124F056012488
:2012A000E8DB01241C100024124B00EB8100124A93ED000AD2ED007A104A30EE270AD0EDA8
:2012C000000A107810B40E4C83ED000A217851B1DFED0C7A002180F00100B0EE670A2170C5
:2012E0001070C3ED007AB7EE001A5DF8044BFFF723BE00BF082B04240457012434DC01243B
:201300002E5701240000000080B582B000AF00237B6055E07B6807EE903AB8EEE77B9FEDA4
:20132000306B27EE066B9FED305B86EE057BF7EEC77BC7ED007A97ED000A0DF0E1FEF0EEE4
:20134000407A2B4A7B689B001344C3ED007A97ED000A0DF099FFF0EE407A264A7B689B00B6
:201360001344C3ED007A97ED000A0DF0C9FEF0EE407AB6EE007A67EE877AB6EE007A77EE0B
:20138000877A1D4A7B689B001344C3ED007A97ED000A0DF079FFF0EE407AB6EE007A67EED8
:2013A000877AB6EE007A77EE877A134A7B6803F580639B001344C3ED007A7B6801337B607F
:2013C0007B68B3F5806FA5DBFFF738FDFFF7ACFD0A4B4FF07A521A6000BF0837BD4680BD31
:2013E000182D4454FB2119400000000000009040E09B0124E0AB0124E0BB012470560124D0
:20140000C94BF7EE005AC9491A68C94B2DE97043C84C054601EB820084B02478D0ED007A34
:2014200004A802FB04F4DFF87483F8EEE77A00EB820C01EB8402D8ED006A0DF1100E67EE6B
:20144000807A92ED007ABC4AF4EEE56AB8EEC77A92ED006AFDEEE77AB84AF1EE10FA27EE46
:20146000066A16680FCB0EE90F0017EE902A5CF8103C03EB820393ED000AB14B35DB83EDC6
:20148000000AF0EE400AAF4B1B68012B33D0B0EE661AFFF715FAAC4BB6EE004AF7EE007A07
:2014A000DFF8FC9293ED007AD9ED005AB8EEC77ADFEDA64A9FEDA65AA64BE7EE447AB0EE5C
:2014C000657A97EE807A87FE247A87FE457A37EE257A89ED007A83ED007A042E00F22181E3
:2014E000DFE806F0B0B6C5DA1D00D3ED000A954B1B68012BCBD19849984B0968984A03EB13
:20150000810392ED000AD3ED007A964B77EEC07A93ED007AA7EE870A82ED000ABBE704AB1A
:20152000FDEEC67A904D03EB840417EE901A54F8100CFFF7B9FED8ED006A99ED007A8B4B64
:20154000B7EE006A95ED000AD3ED007AF4EEC66ADFED874A30EE670A9FED865A864AF1EE5D
:2015600010FA864880FE240A80FE450A30EE270AD2ED005A83ED000AC0F2A380F0EE400A3B
:2015800080ED000AB0EE661A7D49FFF799F9F7EE007AF4EEE75AF1EE10FAC0F28F80F0EE5E
:2015A000400A81ED000AB0EE651A9FED713AF7EE004AFFF785F993ED015A20EE076AD5ED56
:2015C000017AF4EEE46ADFED6B3A77EEC57A6D4A9FED6D4AF1EE10FAC7FE837AC7FEE37A84
:2015E00037EE850A86FE046A82ED006A83ED010A6ADBF0EE400A80ED010AB0EE661AFFF7F8
:201600005FF9F7EE007AF4EEE75AF1EE10FA52DBF0EE400A81ED010AB0EE651A5B4BFFF780
:201620004FF920EE070ADFED587AF0EE460A93ED001A80FE270AFFF743F982ED010A04B0CE
:20164000BDE870834FF07E53474D2B606B6076E7002C50D1B0EE470A4D48F0EE460A424D0D
:20166000FFF7C8FCD8ED006A99ED007A67E704ABFDEEC67AB0EE470ADFED460A03EB8404D8
:20168000394D17EE901A54F8100CFFF7EFFCD8ED006A99ED007A52E7CCB9B0EE470A284682
:2016A000F0EE460A3A49FFF7A1FD2F4DD8ED006A99ED007A43E7D1ED010AADE7D1ED000AEB
:2016C00071E7D0ED000A5DE7D0ED010A95E704ABFDEEC67AB0EE470A284603EB8404224D47
:2016E00017EE902A54F8101CFFF75CFDD8ED006A99ED007A23E704AAFDEEC67A264BB0EE43
:20170000470A02EB8404184D17EE901AD3ED000A54F8100CFFF7AAFCD8ED006A99ED007AF2
:201720000DE7114D0BE700BFB85601244C570124D8FB00083C550124F05601249C56012498
:201740002011002438570124A45601246F1283BA6F12833A4C100024345701244C5801246C
:20176000601000243C570124E8DB0124E0DB01240AD723BC0AD7233CA056012428110024DD
:20178000301100244457012404DC2A3AD4560124DC5901240000000044100024D85601246C
:2017A00024110024B7EE007AC7EE007A08B9F1EE677AB0EE670A7047F7EE007A9FED047AD2
:2017C00030EE200A80FE070A80FE670A704700BF00000000224A234B11681A78032930B4D8
:2017E00021D02149F7EE006A204C91ED007ADFED207A37EE266A84ED007A67EE277A1D4979
:201800001D4D86EE867A1D481D4CC5ED007A046081ED007A1AB11B4A0021C2E90011002275
:201820001A7030BC7047002AFBD10F4AF7EE006ADFED0F7A92ED007A0C4D37EE266A0D4A2A
:2018400067EE277A85ED007A0B4C86EE867A0B490B48C4ED007A086082ED007ADFE700BF33
:20186000C45601240C4D012410100024F84C0124E17A5440184D0124004D012408100024D7
:20188000FFFF1F00E05501245B4B5C4A10B51B781268012B77D0032A55D0594A9FED590A5C
:2018A0001078FFF77FFFDFED587A20EE270A57485749D0ED007AD1ED006A9FED567A77EEF0
:2018C000E67A554A82ED000AF0EEE77AF4EEC77AF1EE10FA3DD400209FED4A0AFFF762FFDD
:2018E0004E4A032B82ED000A72D04D4B187880F001004C4A9FED430AFFF754FF1068F0EEC0
:20190000407A494B0128494A9FED3E0ACCBF00200120C3ED007AFFF745FFD2ED007A444BF1
:20192000F5EEC07A83ED000AF1EE10FA52D9414BD3ED007A404BF5EEC07AF1EE10FA0DD9BF
:2019400001221A7010BD01209FED2E0AFFF72AFFADE73A4A107880F00100BDE71A78002A98
:20196000F0D0374A11680029ECD136490978042936D0032931D02A490978A1B30521116088
:2019800000221A7010BD1E499FED1E0A0878FFF709FF032A87D11D481D49D0ED007AD1EDF0
:2019A000006A9FED1C7A77EEE67A1B4A82ED000AF0EEE77AF4EEC77AF1EE10FAC9D4174BAE
:2019C00000209FED100AFFF7EDFE83ED000A8CE700208EE7FFF7FEFEA9E702211160CFE712
:2019E00001211160CCE718480478002CC8D0022401701460C4E700BF6C560124C456012466
:201A00002C5701240000FA438FC2F53C10100024F84C01240000C8423CDC012470100024C7
:201A20000D4D012478560124681000246C1000247810002464100024044D01246E56012455
:201A4000084D01246D56012444DC0124674A684B92ED000AD3ED000A6649674B9FED675A7A
:201A6000DFED675ADFED672ADFED671A9FED672A70B5FFF7A1FE664CF0EE407A91ED000A86
:201A8000D4ED000A634CC2ED007AFFF795FEF0EE407AD4ED000A93ED000A5F4AC1ED007A5C
:201AA000FFF78AFE5D49F0EE407A92ED000AD1ED000A5B49C3ED007AFFF77EFE594BB7EE90
:201AC000007A0C681D68012C574C584905FE253A574E012D2468574D91ED006A45FE253A33
:201AE00096ED004A012CD5ED007A36EE036A524B45FE254A34EE054A504CD3ED006A77EE34
:201B0000A47ADFED4F4AB0EE403A76EEA36AC4FE473A86FE246AC6ED003A86FE476A81EDD4
:201B2000006A484987FEA46A86FE476A85ED006A91ED004AC6FEA46AC6FEC76AC3ED006A5D
:201B4000414B34EE054A82ED000AD3ED006AD3ED017A84FE476A81ED006A3C49D4E90065F8
:201B60003B4C002E45FE255A002D76EEA56A41FEA22A77EEA27AC6FEA46AC6FEC76AC7FE36
:201B8000A47AC3ED006AC7FEC77AC3ED017AD4ED000AD1ED007A2F4BF4EEC27A2E4993ED4A
:201BA000000AF1EE10FAC8BFF1EE600AFFF704FE83ED000A0B78012B07D0B5EEC03AF1EEEE
:201BC00010FACCBF0120002070BD244B1B782BB1234B1B68036092ED003A4360214A224B9C
:201BE000D2E90021C3E90021E7E700BF6C1000247010002440DC012438DC012417B7D1381A
:201C000017B7D1B86F1283BA6F12833A3333733F781000243CDC012464100024681000243C
:201C20006056012464560124D8550124D4560124D8560124DC550124741000241C56012461
:201C400000000000A05601247C1000241456012440100024CC5601246C5601246E5601249F
:201C600050100024E0550124F0550124B7EE007AA0EE007AB7EEC00AB7EEC77AB1EEC76BCF
:201C800030EE060BB7EEC00B0DF030B860EE006A9FED047AF7EE007AE6EE877A27EE800A2B
:201CA000704700BF9FAAAA3E0029B5EE400A07EE901AF0EE400A80F80428F8EEE77A70B590
:201CC000B4BF4E1C0E46F1EE10FA0D464FEA660604462DED068BB7EE008A066088EE279A31
:201CE0002ED1012929DD00F204540025B7EEC99AF6EE008A9FED3C7B29EE079B07EE905AF5
:201D00000135B8EEE70A30EE280AB7EEC00A20EE090BB7EEC08BB0EE480A0DF0B5FAF0EEAB
:201D2000407AB0EE480AF1EE677AE4EC017A0DF0E7F9AE4284ED3F0AE0DCBDEC068B70BD44
:201D4000DFED2B7AB2EE040A60EEA70A0DF04CF830EE480A88EE000AFFF788FF20EE098A16
:201D6000B7EEC88AB0EE480B0CF0EEFEB0EE40ABB0EE480B0CF0BCFE012DB7EECAABF7EE36
:201D8000C08BDADDB7EEC99A04F20454F6EE00AA00259FED157B29EE079B07EE905A01354E
:201DA000B8EEE70A30EE2A0AB7EEC00A20EE090BB7EEC08BB0EE480A0DF0A2F9F0EE407A99
:201DC000B0EE480A6AEE677AE4EC017A0DF05CFA20EE280AAE4284ED3F0ADEDCBDEC068B5E
:201DE00070BD00BFAFF30080182D4454FB210940CDCC4C3D000000009FED615BB7EEC06A5A
:201E0000DFED617AF0EE402AFFEE001A26EE056B70B5B7EEC66B2DED028B26EE270AFFF76B
:201E200035FF90F80438F7EE007A20EE005A012B036836EE066A41FEA71A47FE850A002BB9
:201E400040F3988035EE671A021D00F2044630EE002AF0EE674A9D0035EE275A02EB830CA4
:201E600031EE011A044631EEA10A3146B1EE008ADFED468AB0EE674A1346D1ED407A91ED3A
:201E8000807A66EE277A26EE077AF0EEE77A27EE077AC7FEA87AA7EEA77AF1EEC75AB0EEAE
:201EA000457AC2EE256AF0EE455AE6EEA75AA6EEE77AC4EE257A27EE277A67EE815A60EE58
:201EC000A77A77EE046AE3EC017A67EE883A20EE273AC3ED7F7AF0EE667AC3EDBF5A9C452D
:201EE00083ED3F3AE1EEA57AA1EC017A83EEA77A64EE874AC1D1C4EE246A1346D3ED007AE9
:201F000067EEA67AE3EC017A9C4593ED3F7AD3ED7F7A27EE267A67EEA67A83ED3F7AC3ED2C
:201F20007F7AEBD1DFED1A7AF4EE672AF1EE10FA20D14FF07E5342F8043B6245FBD12A46D3
:201F4000002104F582700CF093FD2A46002104F501700CF08DFD2A46002104F541700CF031
:201F600087FD2A4630460021BDEC028BBDE870400CF07EBDBDEC028B70BD00BFAFF30080D0
:201F8000182D4454FB2109403EC3AE37CCBC8C2B0080BB46000000000029B5EE400AF0EE65
:201FA000400A70B5B4BF4E1C0E46F1EE10FA0D4626F0010304464FEA660603602DED068B2E
:201FC00030D101292BDD07EE901AF6EE008A00F204540025B8EEE77B9FED3F6B86EE079BFE
:201FE00007EE905A0135B8EEE70A30EE280AB7EEC00A20EE090BB7EEC08BB0EE480A0DF077
:2020000043F9F0EE407AB0EE480AF1EE677AE4EC017A0DF075F8AE4284ED3F0AE0DCBDEC78
:20202000068B70BDDFED2E7AB2EE040A60EEA70A0CF0DAFEF7EE007A30EE670A87EE800A00
:20204000FFF714FE07EE905AF8EEE77A80EE278AB7EEC88AB0EE480B0CF076FDB0EE40AB53
:20206000B0EE480B0CF044FD012DB7EECAABF7EEC08BD4DD07EE905AF6EE00AA04F204544E
:202080000025B8EEE77B9FED146B86EE079B07EE905A0135B8EEE70A30EE2A0AB7EEC00A85
:2020A00020EE090BB7EEC08BB0EE480A0DF028F8F0EE407AB0EE480A6AEE677AE4EC017AF5
:2020C0000DF0E2F820EE280AAE4284ED3F0ADEDCBDEC068B70BD00BF182D4454FB2109401D
:2020E000CDCC4C3D000000002DE97047C0FE807AC0FEC00A0468F7EE004A031DF1EE002AED
:20210000002C9FED714AF0EE643A9FED703AB8BF0134002564102DED048B03EB840883B0FF
:202120004FEA84096E4641460DF1080ACDED007ACDED010A9FED625BB6EC016A2A46254466
:20214000B7EEC66A26EE056BB7EEC66B26EE040AFFF79CFD954236EE066A60EE008A5EDD21
:2021600038EEE31A944270EE001A38EEA32A31EE011A5FD003F5806C1A46DCED407AF0EEED
:20218000420A9CED807A66EE277A26EE077AF0EEE77A27EE077AC7FE837AA7EEA77AF1EEBA
:2021A000C76A81EEA67AF0EE426AE7EE270AE7EE676AC3EEA07A66EEA76A28EEA77A61EE73
:2021C000277A76EEA30AA2EC017A27EE220AC2EDBF7A37EE078A70EEA77A82ED7F7A9142AB
:2021E00082ED3F8A80EE277AECEC016A64EE874AC3D1C3EEA46AD3ED007A67EEA67AE3EC61
:20220000017A994293ED3F7AD3ED7F7A27EE267A67EEA67A83ED3F7AC3ED7F7AEBD1564523
:202220004346494401D0C84486E703B0BDEC048BBDE87087B7EE000A9FED249AF1EE008A55
:2022400000F2045C1A46FCEC017A9CED3F7A67EE867A26EE077AF0EEE77A27EE077AC7FEA3
:20226000897AA7EEA77AF1EEC70AB0EE427AC1EEA06AF0EE420AE6EEA70AA6EEE77AC0EE90
:20228000207A27EE277AE2EC017A67EE810AC2ED7F7A27EEA88A914277EEA76A82EDFF7AA5
:2022A00077EE007AC2EDBF0AF1EE666A77EEE07AC2ED3F6A88EE277A64EE874AC3D198E7B4
:2022C000182D4454FB2109403EC3AE37CCBC8C2B80B485B000AF78600023FB6011E07A6856
:2022E000FB689B0013444FF000021A607A68FB6840339B0013444FF000021A60FB680133D2
:20230000FB60FB683F2BEADD00BF00BF1437BD465DF8047B704700BF0368002B24DD0430ED
:2023200000EB8303F0EC015AB0EE407AF1EC016A90ED3F6A8342E5EE806AD1ED3F7AE6EE62
:20234000077AB0EE660AD0EDBF6AE6EEC07A41ED017AD0EDFF7AD0ED7F6A67EEC07AE6EE12
:20236000877AC1ED3F7ADDD1704700BF002901601BDD031D00EB8100D2F800C01946183290
:20238000043343F804CC814252F814CCC3F8FCC052F810CCC3F8FCC152F808CCC3F8FCC262
:2023A00052F804CCC3F8FCC3E6D17047C64A9FEDC76A92ED007AC64B70EE477AD3ED006AFB
:2023C000F0EEE77A2DE97047F4EEC67A89B0F1EE10FA00F32B82DFEDBF7AB7EE006ADFED2D
:2023E000BE5A76EEA76AC6FEC66A76EEC67A86FEC67A87FE257A36EE474AC7FEC67AC7FE51
:20240000A57A37EE677AB54A0029C3ED006A1368B34D03F10103DFEDB37A85ED004AC3F377
:202420000D0360EE277A85ED017A136040F3C781DFF8BCE2F0EE005AAB4E03F58048DEED91
:20244000006A0129D6ED013AB1EE675AFDEEE66A96ED003AA54CD0ED004A16EE90CAF0EE5E
:20246000656A04EB8309ACF10202A3EB0C0C04EB880806EE102ACCF30D0CB8EEC66AE3EE9F
:20248000866AF0EE653AE3EE063AFDEEE66A16EE90AAFDEEE33AA3EB0A0A13EE902ACAF323
:2024A0000D0AA3EB020204EB8A030AF5804AC2F30D02D3ED006A04EB8A0A04EB820367EEF4
:2024C000266A9AED006A02F5804227EE067A93ED006A04EB8202E4EE066A92ED006AA4EE13
:2024E000067AE7EEE64AC9ED004AE7EEA46A90ED016AA7EEC76AC0ED006ACDED006AA7EEF6
:20250000867A88ED006A8DED047A80ED017A00F056819EED017A04EB8C0996ED034A0CF5DA
:202520008048BDEEC77A96ED023AD5ED016A04EB8808D5ED003A022917EE103AB0EE657A89
:20254000D0ED004AA3F10202ACEB030306EE102AC3F30D03B8EEC66AA4EE067AB0EE654A16
:20256000A3EE064ABDEEC77A17EE10AABDEEC44AACEB0A0A14EE102ACAF30D0AACEB0202C0
:2025800004EB8A0C0AF5804AC2F30D029CED006A04EB8A0A04EB820C26EE866A9AED007A31
:2025A00002F5804266EE876A9CED007A04EB8202A7EE236A92ED007AE7EE236AE6EE054A07
:2025C000C9ED004AA7EEA46A90ED017AA5EE267A80ED006A8DED016AE7EE876A88ED007ABC
:2025E000CDED056AC0ED016A00F0E9809EED027A04EB830996ED054A03F58048BDEEC77A41
:2026000096ED043AD5ED016A04EB8808D5ED003A032917EE10CAB0EE657AD0ED004AACF125
:202620000202A3EB0C0C06EE102ACCF30D0CB8EEC66AA4EE067AB0EE654AA3EE064ABDEE29
:20264000C77A17EE10AABDEEC44AA3EB0A0A14EE102ACAF30D0AA3EB020204EB8A030AF502
:20266000804AC2F30D0293ED007A04EB8A0A04EB820326EE877A9AED006A02F5804266EEC8
:20268000866A93ED006A04EB8202A6EE237A92ED006AE6EE236AE7EE674AC9ED004AA4EE5A
:2026A000A77A90ED016AA6EEE76A80ED007A8DED027AE6EE276A88ED006ACDED066AC0ED34
:2026C000016A7CD016E000BFDC1000240AD7233C48DC032417B7D1380000000074DC0324A5
:2026E0004CDC0324FA7E2A3F54DC032448DC0124CC1000249EED037AF0EE656A96ED063A92
:20270000FDEEC74AD6ED072AB0EE657A95ED016AD5ED003A04EB8C0514EE903A90ED004A50
:20272000023B04EE903AF8EEE44AA4EE837AE4EEA26ABDEEC77A17EE102ABDEEE67AACEB52
:20274000020217EE103AC2F30D02ACEB03030CF5804C04EB820602F58042C3F30D0304EB13
:202760008C0C04EB8202D6ED004AD2ED005A04EB830203F58043D2ED006A04EB830366EE07
:20278000266A93ED007AE4EEA36A26EE077AA5EEA37AF0EE445AE5EE265AC5ED005AE7EEDB
:2027A000A56A90ED016AA5EE076AC0ED006ACDED036AA7EE867A8CED006A8DED077A08AABB
:2027C0003A4C3B4BB7EE005A02EB8102246893ED007ADDED006A012C52ED095A08AA9FEDB7
:2027E000356ADFED357A75EEE65ADFED344A02EB810146FE277A77EE877A11ED056A9DED21
:20280000047AC7FEA47AC7FEC57AE7EEA56AC3ED007A36EE476AC0ED006AD3ED007AA6EE8B
:20282000277A80ED017A09B0BDE87087F7EE007AF4EEE76AF1EE10FA21DB002916DD204CBB
:20284000012984ED007A84ED010A0FD0022984ED027A84ED030A09D0032984ED047A84ED0D
:20286000050A03D084ED067A84ED070A9FED117A9FED144AF0EE476A82ED000AC3E59FEDC6
:202880000D7ADFED0E5A76EE876AC6FEE76A36EEE76A86FEE77A87FE257A37EEC74A86FEDB
:2028A000676A86FE256A37EE467AACE5A856012478DC032417B7D13817B7D1B800000000F2
:2028C00054DC032472F97F3F08B52DED0A8BF0EE628A32EEA2CAB0EE409AB0EE620AF0EE56
:2028E00060AAF0EE619AF0EE42BAB0EE418A0CF0CBFCB0EE40BAB0EE680A0CF001FCB0EEB0
:2029000040AAB0EE4C0A0CF0BFFCF0EE408AB0EE4C0A0CF0F5FB20EE2B2A28EE887A68EEC9
:20292000AB8A20EE088AABEE2A7AEBEE298AAAEE2A8AAAEE292AF7EE006A39EE070A78EED5
:20294000A68A28EE088A22EE022AA0EE008AA8EEA82A88EE020ABDEC0A8BB1EEC00A08BDF5
:2029600008B52DED068BD0ED008A90ED019AD0ED029AB0EE680A90ED03AAF0EE490AD0ED0F
:2029800004AAB0EE691AF0EE4A1ADFED452AB0EE6A2AFFF799FFB0EE408AB0EE6A2ADFEDC5
:2029A000412AF0EE4A1AB0EE691AF0EE490AB0EE680AFFF789FF38EE008AB0EE6A2ADFEDDC
:2029C0003A2AF0EE4A1AB0EE691AF0EE490AB0EE680AFFF779FF38EE008AB0EE6A2ADFEDD3
:2029E000332AF0EE4A1AB0EE691AF0EE490AB0EE680AFFF769FF38EE008AB0EE6A2ADFEDCA
:202A00002C2AF0EE4A1AB0EE691AF0EE490AB0EE680AFFF759FF38EE008AB0EE6A2ADFEDC0
:202A2000252AF0EE4A1AB0EE691AF0EE490AB0EE680AFFF749FF38EE008AB0EE6A2ADFEDB7
:202A40001E2AF0EE4A1AB0EE691AF0EE490AB0EE680AFFF739FF38EE008AB0EE6A2ADFEDAE
:202A6000172AF0EE4A1AB0EE691AF0EE490AB0EE680AFFF729FF30EE080ADFED117AB4EE2A
:202A8000E70AF1EE10FA06D4F4EE007ABDEC068B20EE270A08BDBDEC068B9FED0A0A08BD49
:202AA00020C9A93E20C9293FB0AD7E3F20C9A93F683BD43FB0ADFE3FFC8F144020C9294089
:202AC00017B7513A17B7D138DFED537A534A60EEA77A53499FED537AFDEEE77A10B52DED01
:202AE000048BB0EE409A17EE903AB2EE040A044602EB8302F0EEC90A01EB830192ED008A6C
:202B0000D1ED008A60EE870A0CF06EF9B1EEC06ADFED457AB7EE005AB5EEC09A68EE276AF4
:202B2000F1EE10FAF1EEC65A76EE057A36EE457A28EEA74A68EE878A66EEA56A30DD77EEA4
:202B4000E85A77EEA87A77EE044A75EEA63A37EE447A75EEE65A37EEA64A77EEE67AC5EEA3
:202B6000236AB8EE003A37EE077A64EE834ABDEC048B26EE266A27EE267A65EEA65A24EE2D
:202B8000065A64EE866A84ED037A67EE867AC4ED045A84ED005AC4ED016AC4ED027A10BD60
:202BA00009D4002384ED005ABDEC048BA36063602361E36010BD77EEA84A77EEE87A77EE35
:202BC000445A74EEA63A37EE047A74EEE64A37EEA64A77EEE67AC5EE236AB8EE003A75EE83
:202BE000A55A27EE037ABDEC048B26EE266A27EE267A64EEA64A65EE865A64EE066A84ED0B
:202C0000037A67EE867AC4ED044AC4ED015AC4ED006AC4ED027A10BD3EC3AE3CE09B012437
:202C2000E0AB0124CDCCCCBCF30BB53FD0ED007AF0EE406A91ED006AD0ED015AA7EE806A93
:202C400091ED017AD0ED047AA5EE807A90ED035AD0ED025A67EEC67AB0EE460AA5EE467AEA
:202C6000E5EEA67A81ED007AC1ED017A704700BF80B582B000AF00229FED2A0A04212A484B
:202C8000FFF712F8DFED297AB0EE670A2648FFF7B3F89FED270A02212648FFF77DF9DFED21
:202CA000260A9FED260A2348FFF71EFA244A03212448FFF75BFB00229FED1D0A0421224801
:202CC000FEF7F2FF9FED210A1F48FFF795F800237B601FE000233B6016E03B685A007B68DC
:202CE00013445B021A4A13441846FFF7F1FA3B685A007B6813445B02164A13441846FFF787
:202D0000E7FA3B6801333B603B68032BE5DD7B6801337B607B68012BDCDD00BF00BF083756
:202D2000BD4680BD00000000A0EC03240080BB46CDCC4C3EA8F4032400002A430000FA458D
:202D400084100024B0FC0324B804042400001645A0DC0324C00C04242E4BB7EE007AD0EDBD
:202D6000007A93ED006A0023D0ED036A77EE867AD0ED025AC360F4EEC77AC0ED007AF1EED8
:202D800010FA22DB244B77EEC77A90ED046AB6EE005A93ED004AC0ED007A70EE464A67EEFA
:202DA000847A37EE677A67EEA77AA4EE876A27EE477A76EE655A80ED026A25EE855AA5EEBF
:202DC000076AE7EE856AF0EE465A144AF6EE004AB7EE005A124BD2ED007ABFEE007A93ED78
:202DE000006A76EE856A0F4B67EEA47A80ED040A36EE066A93ED005A37EE407AC0ED035A77
:202E000067EEA67AF8FE677AA7EE867AA7EE050A704700BF14560124185601240C5601240E
:202E200010560124CC560124774A0321774B92ED000AD3ED007A9FED766A30EE270ADFEDCF
:202E4000756A9FED757A9FED751A90ED002AD0ED011ADFED730A2DE9704F2DED028BB7EE14
:202E6000008A704D0446F0EE008AD5ED007A80FE480AB4EEC60ADFF8DC8104F1080A6A4EE8
:202E8000F1EE10FADFF8D0B158BFB0EE667A77EE877AC7FE817AC7FEC87AC5ED007AFFF70D
:202EA00085FAD0ED007AFFEE003AD5ED006AB6EE005A77EEC27A5D4B90ED017ABAEE083AE0
:202EC000DFED5B5AB2EE080AA7EEA62A594937EE617A594ADFED592A9FED474B9FED486B69
:202EE00080ED002AD3ED007A554862EE277A95ED002AE7EE021AC7FEA37AB0EE487AC7FECF
:202F0000C87A27EEE72AA2EE257A67EE877AC4ED007A91ED007AD3ED007AB4EEC57AB0EEE8
:202F2000485A61EEA77AF1EE10FAA7EE685A92ED007AC7FEA37AC7FEC87AE7EE220A67EE07
:202F4000E73AB0EE487A58BFB0EE430AB0EEC55AA3EEA57AB7EEC55AA5EE046B67EE277AC5
:202F6000C4ED017AB7EEC66B86FE016A26EE000AFFF7AAFD334A344B15681B6805EB052292
:202F8000D8ED007A03EB03299FED307AED1A06EBC90977EE877A06EBC2062D4AAD0202EBA6
:202FA0008322C7FEC87AC8ED007A594694ED000A23480BF1080BFFF739FE1146F0EE404AA6
:202FC0004846FFF7A9F9B0EE405AA9183046B0EE640A02F50072FFF79FF930EE450AD8ED27
:202FE000007AA0EE275AA4EC015AA245DDD1BDEC028BBDE8708F00BF000000403333F33F57
:20300000000000A09999C9BF2057012430570124CDCC4C3D6F12833A6F1283BA00000000F0
:2030200000007042C8280424A0EC032434100024ABAAAA3E18570124005701240000FA451F
:203040007CDC03248C5601248856012417B7D138A0DC0324D056012490DC0324002305481F
:203060000549064A036043600B6013604B605360704700BF445601244C56012454560124A5
:203080005F4AF7EE003AD0ED006AD2ED007A5D4AF0EEE66AF8EEE77A5B4B9FED5C6A93ED74
:2030A000003AF4EE637AD2ED007AB7EEC35A5849584BF1EE10FA91ED007AF4EEE76A93ED44
:2030C000001A9FED4D4B46FE233AF1EE10FA10B5514C25EE045BD4ED002A03DDF0EE667ACB
:2030E000C2ED006ADFED4D6AF4EEE67AF1EE10FA03DB4FF07E544A4B1C604A4B67EE277A7E
:203100009FED494AF7EE000AD3ED006A90ED012AF4EEE76AD2ED011A77EEE67A434CB0EED0
:20312000C22A9FED3A0AF1EE10FAF4EEC21A54BFB0EE626AB0EE416AF1EE10FAE6EE276A18
:2031400036EE844AC3ED006AB7EEC44A85EE046BB7EEC66B86FE006A86FE606A84ED006AE1
:2031600003D5F0EE421A82ED012ADFED2C7AF4EEE71AF1EE10FA03DB4FF07E50284A506058
:2031800067EE217A93ED017A9FED274AF7EE004A9FED1E2AB4EE677A224877EEC77AF1EED2
:2031A00010FA48BFF0EE412AA7EEA27A37EE046A83ED017A1E4BB7EEC66A85EE067BB7EEAF
:2031C000C77B87FE027A87FE647A84ED017AFDF757FB30EE044A83ED000AF0EE647A83EE04
:2031E000047A37EE647AE7EE237AC7FE827AC7FEE47AC1ED007A10BD1B0DE02D90A0E63F79
:20320000785601244456012420100024000000001C10002414100024181000246666663F53
:203220004C5601244055012417B7D1384C5501244855012480B588B000AF0023FB6112E021
:203240002F4AFB699B0013444FF000021A602C4AFB6903F500139B0013444FF000021A6052
:20326000FB690133FB61FB69B3F5001FE8DB01229FED240A02212448FEF716FD0023BB61B9
:2032800030E04FF07A533B614FF08043FB601F4BBB601F4B7B60BA691346DB009B1A9B00A8
:2032A0001C4A1344D7ED011A97ED021AD7ED030A97ED040A1846FDF76BFBBA691346DB0060
:2032C0009B1A9B00144A1344D7ED011A97ED021AD7ED030A97ED040A1846FDF759FBBB693D
:2032E0000133BB61BB69012BCBDD0C4B7B6197ED050A0548FEF780FD00BF2037BD4680BDAB
:20330000000000C100000000C02004240AD7233C6F12833A402904247829042400001643B3
:203320003C4AF0EE006A9FED3C6ABFEE007AD2ED007AB0EE085A394B04EE101A77EE867A28
:20334000B6EE086AF6EEE75A77EEE57A2DE9704FA7EEA67A80462DED0C8BF7EE00CA93ED3E
:20336000008A88B0B0EEC77AB4EEEC8A3CEEC77AF1EE10FA67EE074AA7EE665A64EE864A23
:2033800040F3AE82F1EE088A9FED257AB0EE6C6A2448F5EE005A2449D0ED006A91ED002AD5
:2033A000E4EE855A214BC2EE263A9FED213AD3ED002ADFED204A9FED205A204837EE227AAA
:2033C0001F49C2ED007A87FE037A87FE647A83ED007AA5EE867A80ED007AF4EEC53AC1ED04
:2033E000003AF1EE10FA35DC9FED167AF4EEC73AF1EE10FA40F3528237EE637ADFED125A70
:20340000F6EE083A9FED116AE7EE253A63EE863A22E000BFB0290424CDAFE6351057012455
:2034200017B7D1384C100024004D01240C2B042400000000295C8F3D0080F84730570124A8
:20344000B829042400C293466D5AC93600008043CDCCCC415FED023AB2EE007ACF49F7EEFA
:20346000005ACF4BB0EE003ACE4827EE876AD1ED067A26EEA39A91ED017AF8EEC46AC3ED98
:20348000003ABFEE005AB6EEC64A77EEE57A36EE446A37EE657A67EEA67AA6EE035A27EE22
:2034A000267AFDEEE77AF0EE084ABDEEC77A17EE903AF0EEC57A17EE102A8DED017AB0EE46
:2034C000647A059375EEE77AFF2AA7EEC37A29EE279A29EE279A29EE079A80ED009A02DC6A
:2034E00002F580720192FF2B02DC03F580730593B7EE006A91ED027AD1ED077ADFEDB85A9F
:2035000037EE467A77EEC67A78EEC6AA27EE267A67EEA67ACAFEA5AACAFEC6AABDEEC77AE6
:20352000FDEEE77A6AEEAAAA17EE102A8DED027A17EE903ACDED067AFF2A2AEEAA0A02DC82
:2035400002F580720292FF2B02DC03F580730693B7EE006A91ED037AF0EE009ADFEDA05A1A
:20356000D1ED087A37EE467A78EEE99A77EEC67A27EE267AC9FEA59AC9FEC69A69EEA99A1C
:20358000BDEEC77A67EEA67AA9EEA90A17EE102A3AEEA9BAFDEEE77A8DED037AFF2A3BEE21
:2035A00006BA17EE903ACDED077A30EE060A02DC02F580720392FF2B02DC03F5807307932A
:2035C000B0EE086A9FED867AF7EE007A764BF6EE006A78EEC68A93ED00AA2AEE26AAC8FE53
:2035E000878AC8FEE78A68EEA88AA8EEA80A3BEE28BAB4EEC70AF1EE10FAC0F2A581F1EE95
:20360000C07ADFED6A6A00249FED690A6948DFF8C8A1F7EE00DADFF8C4B18AEE0BDA8DEED9
:20362000A77A3DEECAAAA8EE260AAAEE07DAFEF7E3FB614B9DED017A1E68B8EEC7BADFED8E
:20364000687A07EE106AB8EEC7AA9DED027A3BEE49BAF8EEC7BA9DED037AB8EEC7CA8BFEA2
:2036600027BA7BEEC9BA3CEE49CACBFEA7BA8CFE27CABAEC012AA500F8EC017AB8EEC22A34
:203680004E4B3DEEE70A03EB04104D4B32EE672AFDF73EF9B0EE405A03EB840332EE4B0ADD
:2036A000D3ED007A25EE275AB4EECA0AF1EE10FA80F2EC80B5EEC00AF1EE10FA01D530EEB5
:2036C0000A0A404B314603EBC4594846FDF700F9F0EE406A002C40F0E48032EE6B0AAAEED9
:2036E000A65AB4EECA0AF1EE10FA80F2A580B5EEC00AF1EE10FA01D530EE0A0A3146484671
:20370000FDF7E6F8F0EE406A002C40F0A08032EE4C0AA6EEA95AB4EECA0AF1EE10FA61DA2C
:20372000B5EEC00AF1EE10FA01D530EE0A0A48463146FDF7CDF8F0EE406A002C5CD1A6EEF8
:20374000A85A214BC4EBC40003EB80002DEE058AB0EE480AFDF730F930EE480ADBED007AB1
:203760001A4BA0EE278A134803EB4421B0EE480AFEF7D2FD30EE480A154B2819A0EE2C8AEE
:2037800003EB8000B0EE480AFFF7E6FA114B1D4485ED000A002C7CD101246AE7EC100024AD
:2037A000BC290424B42904249C550124000016430000F042C02004240C10002400290424BD
:2037C0007C100024000000C140290424C01C0424CC280424F8550124E855012440DC0124B2
:2037E0000000000030EE4A0A48463146FDF770F8F0EE406A002CA2D0DDED077A1FED087AF7
:20380000F8EEE77A77EEC97AC7FE877A32EE670AB4EECA0AF1EE10FAC0F28D8030EE4A0AD2
:2038200031464C48FDF754F84B4B30EE660AD3ED007AE0EE276A82E730EE4A0A31464846A0
:20384000FDF746F8F0EE406A002C3FF460AF9DED067ADFED427AB8EEC70A30EE490A80FE48
:20386000270A32EE400AB4EECA0AF1EE10FA5ADB30EE4A0A31463748FDF72AF8364B30EEFC
:20388000660AD3ED007AE0EE276A40E730EE4A0A17E708B0BDEC0C8BBDE8708FDFED303AB6
:2038A000DAE59DED057ADFED2D7AB8EEC70A30EE490A80FE270A32EE400AB4EECA0AF1EE77
:2038C00010FA28DB30EE4A0A31462248FDF700F8214B30EE660AD3ED007AE0EE276AFCE627
:2038E000F1EE046ADFED1D3AB1EE006A9FED1D7ADFED1D5A68EE266A36EEC66A76EEAC8A15
:20390000C6FEECCA86FE236AB4EEE36AF1EE10FA37FE257A3CE5B5EEC00AF1EE10FAD3D551
:2039200030EE0A0AD0E7B5EEC00AF1EE10FAA1D530EE0A0A9EE7B5EEC00AF1EE10FA7FF551
:203940006FAF30EE0A0A6BE70BF032F9F0EE407A57E600BF000080C1741000240000000022
:203960000000404317B7D13817B7D1B880B483B000AF0E4B00221A600D4B00221A60002374
:203980007B6009E00B4A7B689B0013444FF000021A607B6801337B607B68012BF2DD00BFEF
:2039A00000BF0C37BD465DF8047B7047D4290424D0290424C82904245C4BD3ED0D7AF5EE47
:2039C000407A2DE9704FF1EE10FA594D594EDFF8949114BF012300232B7002F047FE564B99
:2039E000044695F8008093ED007A3378D9F800204345A0EB020574D0DFED507ADFF868A106
:203A0000DFF868B127EE277A9AED006ADBED007AB8EEC66AC7EE276A77EEC67AFDEEE77AC0
:203A200017EE903A002BB8BF5B42FDEEE66AB3F57A7F47DC424B0021DFF834E1DFF834C113
:203A40001960DEF80030DCF80010581C4029D8BF013100F03F0016EE902ACEF80000394829
:203A6000CCF8001040F823200023CBF80030FDF71FF807EE900A344B344A40F20111F8EE20
:203A8000E76AC9F80040C7EE267AB6EEE77AD3ED007A2F4BF8EEE77A186002231360C7FEAA
:203AA000C77A2C4BFDEEE77A198001212A4BCAED007A197040F698018D4229D886F800807B
:203AC000BDE8708F1E490B680133022B0B6017DD0023DFF89CE0DFF89CC00B600121084624
:203AE000B9E740F698039D42E8D9184A1368022B0BD0194B012286F800801A70BDE8708F1D
:203B0000DFF86CE0DFF86CC09BE7DFF85CA0124B00214FF07E50C9F8004011600F4C104A78
:203B2000CAF8001021701060E4E700BFB411002454100024551000247056012400C82F4A02
:203B4000F02A0424E8290424F428042440570124FC2A0424E8100024F82A042444DC0124F1
:203B600018110024F42A0424C8550124C4290424EC2A0424E82A042430B56F4C8FB00FCC29
:203B80000DF1040CACE80F000FCCACE80F000FCC2468ACE80F00CCF8004002F067FD674BE0
:203BA0000446674AD3ED007A92ED007AF4EEC77AF1EE10FA34DB77EEC77A624A0121C3ED98
:203BC000007A11706049614B614A08691B69117803F48063002933D0002111705D4A0021FC
:203BE0001160BBB15C4A5D485D490368B3F57A7F03D80D685B1B234403605A480C600178D4
:203C000021B95949096809B1032928D1002313700FB030BD554B01221A70FFF7A7FEE1E7D6
:203C2000534BDFED546A93ED007A27EE267AF4EEC77AF1EE10FAC5DD424B00221A70C1E71E
:203C40004205CBD5434B1A68012ACBD04A480268A21A642A5CD801213F4A1960C3E74749CF
:203C600009780029D2D1B3F57A7FCFD31378002BCED0434B434CD3ED007A94ED007AF8EE28
:203C8000E77A1170F4EEC77AF1EE10FA33DD3E4A3E4913683E4801EB830C013303F0010370
:203CA0008CED007A13600368012B27DDD1ED006AD1ED017A76EEA76A07EE903A354B0EAD33
:203CC0000122F8EEE77A1B683348C3F10C03334986EEA77A026005EB8303314853ED0D7A90
:203CE000027067EE277AFDEEE77AC1ED007A002323600FB030BDFFF739FEF8E70133002B2B
:203D00000360F4DD012BD1ED006AD5D00223CFE7164D2A782AB1104A2970012104601960C9
:203D200061E7204901250C4A09681570B1FA81F11D4D49092970F0E7E8FB0008DC290424FF
:203D4000F84C0124D92904240004025800080258C15501241C110024D82904241411002412
:203D6000E4290424BC560124C4560124E02904244C10002400007F43042B04245C1000243E
:203D8000F4280424C0290424D0290424C8290424D42904245810002440570124C4550124E9
:203DA000BD560124905501242E5701244FF48072002101480AF05CBE00010024891A01316A
:203DC000194470B51446054691FBF3F203FB12115E1A00EB8100B44207DC002C17DDA200AB
:203DE0000021BDE870400AF043BE002E03DDB20000210AF03DFEA31B002128468B424FEAE9
:203E00008302BDE87040D8BF04220AF031BE70BD2DE97043FFF7CAFF104BDFF85480002443
:203E2000D3F800904FF400130D4ED8F800104A4630460C4DFFF7C2FF4FF400134A46D8F8CA
:203E4000041006F500002C60FFF7B8FF064A074B6C6014701C60BDE8708300BF0810002419
:203E6000000000C0F04C01240D4D0124084D0124E055012438B5FFF799FF2E4B2E49002241
:203E80002E4803F1807E4FF0000CB2F5001F05DA342AC1F800C04ADDC3F800C004330132E7
:203EA000043104307345F0D10025254C25484FF0000C254A2B4625492560B3F5001F0FDA4F
:203EC000342B03F10103C2F800C002F10402D4BF41F804CB0431B3F5001F40F804CBEFDBB0
:203EE0000133043004320431B3F5800FE5D118484FF0000E00231749C0F800E001221648B9
:203F00004FF07E5C63600370144C1548227002600A68144C012A1448144A08BF0B60237025
:203F200000231349C0F800C00B60137038BDC0F800C0B1E7000000C1000000C0701400246E
:203F4000F0550124000080C1000080C090620024FC4C012440570124BD5601246E56012416
:203F6000E410002444DC0124181100240C4D0124084D012470B5FFF719FF3349334BD1EDB4
:203F8000007A334AF5EE407AF1EE10FA1AD10021304D55F8214000200433043243F8044C55
:203FA00042F8040CE1B12C4A4FF0000C00232B4CC2F800C02A482B492B4A237003600B6094
:203FC000137070BD294800211C461546006843F8041B012842F8041B04D061606960E2E777
:203FE0000121D6E7224D9FED237AD5ED007A224977EEC77A60680D68FDEEE77A17EE901AC5
:20400000411A01D54919FDD4A84214DA1B4E00F5001006F5000C06EB80040CEB850C01F5FC
:204020000010013106EB8000A942006844F8040B05D0A445F3D1002119601160B3E7A4451F
:204040004FF00001EBD1F6E7FC4C0124E0550124F04C0124F0550124B02904246E5601240B
:20406000084D012474DC032444DC012460560124004D01240000484208100024000000C037
:204080002DE97043AA4EAB4B3268022A2DED028BB0EE408A1B7800F0C880042B00F0BF806B
:2040A000DFF80C83A4490B70A44DA54C2978236821BBDFF8A492D9F80010994202D0002B82
:2040C00000F089809F49032BC9F80030D1ED007A23D0002188F80010002A00F09180012AAE
:2040E00000F00281022A40F09180974A974B92ED007AB8EEC77A83ED007A87E0032B68D185
:204100009FED937A0020934CF0EE477A8D4928702070914881ED007A036098F80030002A5C
:2041200000F0B980012A00F0EB80022A00F0F180002B6BD089480025894B00689FED897A1C
:204140000028DFED896A894C14BF0120002006FE877A2560187078480078012800F0A1800B
:20416000022858D10020784A814C88F80000012012682070002A49D006EE902AF7EE005A62
:20418000F8EEE66A87EEA66AF8FE467AF4EEE57AF1EE10FA05D4BDEEE76A66EEA76A16EE46
:2041A000100AB4EEE67A9FED736A734AF1EE10FA10608CBFB0EE667AF0EE476AB4EEC67A2A
:2041C000F1EE10FA40F1AE80F0EE467A81ED006A3FE0DFF88491FFF7C9FB002223685D4909
:2041E0006648032B0A70DFED5A7A5649C9F800300270326088F800202A70C1ED007A49D0BA
:204200005F4A524902EB83031B680B60F5EE407AF1EE10FA1CD1BDEC028BBDE87083464B27
:204220000321DFF88C8119703EE7022B7FF435AFDFF87C8198F8001000297FF433AF514BB6
:20424000187800283FF430AF3B48197002702BE7434BDFED4D6A4D4D27EEA67A3B4CC5EDEB
:20426000007AC4ED007AFDEEC77AB6EEC77A37EE667A474A4748197817EE903AC2ED007ADA
:2042800080ED007A0029C6D05B00BDEC028B1360BDE8708313463A482C4AC06810600022D1
:2042A00046E7F5EE407A0023012A344808BF3360F1EE10FA037005D1374B0022DFED377ABD
:2042C000C3E9002238EE270A354A364B1268B4EEC70A1A605A60F1EE10FA0EDB324B012226
:2042E00081ED007A1A7096E7304A184B92ED007AB8EEC77A83ED007A88E781ED000A8AE7D0
:204300002A4C124894ED007AB8EEC77A80ED007A0EE70D4C0D4894ED007AB8EEC77A80ED12
:20432000007A05E7F0EE477AC1ED006A6EE700BF405701246D5601246C560124C055012487
:20434000C4560124FC4C0124C85501241010002400000000044D0124C0560124D855012428
:20436000002B042460379A4870371A49DC2904240C4D012400007A44E4100024BD560124AE
:204380001C4D0124F82A0424E17A5440F84C012408100024004D0124E05501240000804322
:2043A000501000244457012474560124C45501246E56012480B586B000AFF860B9607A603E
:2043C0003B607A68BB689A4201DB00237B607B68002B03DA7A68BB6813447B60BA687B6860
:2043E000D31A7B613A6A7B699A420ADC7B689B00FA68D0183B6A9B001A4639680AF06AFB42
:2044000015E07B689B00FA68D0187B699B001A4639680AF05FFB7B699B003A68D1183A6A5D
:204420007B69D31A9B001A46F8680AF053FB00BF1837BD4680BD00BF2DE9704F1A4B82B08F
:204440001A4C0D46D3F800B006462268DFF874A05946174B0092D3F8009002685046154B19
:20446000FFF7A8FFDFF860802368494640460093114B2A68FFF79EFF7268636800265946CA
:204480000AF5000000930D4B2660FFF793FF63686A684946009308F50000094BFFF78AFF95
:2044A000666002B0BDE8708F08100024F04C01240C10002470140024B0B0002490620024C1
:2044C000D0FE0024000000C0000000C180B483B000AF304B304A1A602E4B93ED007AF7EE8C
:2044E000006AC6EE877A2D4BC3ED007A01237B6023E07B68013B274A9B00134493ED007A7D
:20450000DFED276AC7EE267A224A7B689B001344C3ED007A1F4A7B689B00134493ED007A46
:20452000F7EE006AC6EE877A1C4A7B689B001344C3ED007A7B6801337B607B68032BD8DD5A
:20454000144B9B68134AD360124B93ED037AF7EE006AC6EE877A114BC3ED037A0D4BD3ED6A
:20456000037A9FED107A67EE877AFDEEE77A17EE902A0D4B1A60074BD3ED037AFDEEE77A9A
:2045800017EE902A094B1A6000BF0C37BD465DF8047B70471C4D0124E4B215432C4D0124E4
:2045A0000000803DE17A5440E0100024F428042480B582B000AF00237B6012E00E4A7B68B6
:2045C0009B0013444FF000021A600B4A7B6803F500139B0013444FF000021A607B68013327
:2045E0007B607B68B3F5001FE8DBFFF76FFF00BF0837BD4680BD00BF000000C02DE9704F7D
:20460000AC4B2DED0C8B98B0DFEDABAA9FEDABBA1093AB4B0F93AB4BCDE9140108460E93AD
:20462000FDF714FAA84BF7EE001ADFEDA87AD3ED000A8346A64B002171EEE01A93ED001A00
:20464000A44B71EE677A93ED008AA34B61EE881A93ED007AFDEEE77AA04B28EE078A1B68E7
:20466000CDED077A13939E4B0D939E4B11939E4B06939E4B05930F9BF7EE007A9C4AF3EC72
:2046800001CA02EB01120F93F4EEE7CA109B0892B3EC01DAF1EE10FA1093159B03EB8103AD
:2046A000D3ED009A934B69EEAA9A03EB8103D3ED008A4FEA8103C9FEEA9A87EEA99A129306
:2046C0008D4B53F821408D4B53F8213001938C4B53F821800E9B53F8046B0E934FEA01133A
:2046E00040F12081874ADFED88BAD2F800A0874A07EE90AADFF8289213440A02F8EEE7DA04
:204700000993834B3BEE6DCA93ED00AA814B1B680A9381F001035B050C934B050B936FE008
:2047200077EE6D7AFDEEE77ACDED027A0798201A50457DDBA0EB0A000B9D029B284409EBAB
:20474000800090ED000AE8180C9D09EB8000D0ED007AE81809EB8000D0ED006A002972D1F7
:2047600036EEE77A0A9B09985C44CDE90312019AE7EE0A7A5445A8BF00245A4411469A421A
:20478000A8BF0021B0EE672A0191FCF7F7F8B0EE6C0A0898FCF7BCF8049A5F4B08F1010C45
:2047A00002EB080060EE826A5FFA8CF87CEE89CA03EB8000B7EE006A069968EE027A80EDD5
:2047C000000A02EB0800F4EEC6CA03EB800090ED007A01EB86000599F1EE10FA28EE877AF3
:2047E000E1EE876AB0EEC77A8DFE07DAC0ED006A01EB86005E440399C0ED007A40F194807B
:2048000007EE904AB8EEE77A37EE417AB4EEED7AF1EE10FA84DAB5EEC07AF1EE10FA42D4B6
:204820000798FDEEC77A201ACDED027A504581DA07EE900AF8EEE77AF5EEC07AF1EE10FA71
:2048400048BF504478E737EE0B6AB4EEED6AF1EE10FAC0F2C2803CEE077ABDEEC77A17EE52
:20486000100A079DA5F1320CA4EB0C0CD445C0F2A980ACEB0A0C0CF5001C00F5001009EB48
:204880008C0C09EB80009CED006A90ED007A234836EE406A37EE677AD0ED005AA6EE250A09
:2048A000E5EE877A5CE777EE2D7AFDEEE77ACDED027A3BE754560124E17A544000004842E9
:2048C000B8550124F04C012438DC012400008043004D0124641000246C100024104D01241D
:2048E0001C5601242456012470140024B0B00024202904244C550124E0550124E855012463
:20490000F828042408100024000048C200290424DC5501240C1000243C4D0124D456012425
:20492000000000C001230293F7EE007A129A149B089813447CEEE7CA039193ED000A02F121
:20494000580369EEAC9A6B44C3ED009AFCF716F80D9A029913685B1A0399052B01D800236B
:204960001360129B334A019842F803800E9A42F8046C0F9A42ED01CA2F4AD4502F4AD05019
:20498000109B03ED01DA139B002B0ADD0D9A14605A1E119B1392C3E90000C3E90200284B30
:2049A0001A600D9B069A04330D93119B1033119344F620631A440692059A1A440592D1B9FA
:2049C000012158E607EE10CAB8EEC77AB5EEC07AF1EE10FA48BFD4444DE7B4EEEB7AF1EEC2
:2049E00010FA21D53DEE8B6A36EE077ABDEEC77A17EE100A35E7FDEEC17A16A817EE901A38
:204A0000FEF78EFC0F4B93ED007AD3ED017A27EE087A67EE887A83ED007AC3ED017A18B0BD
:204A2000BDEC0C8BBDE8708FBDEEC67A17EE100A17E700BFF8280424E0550124E8550124C7
:204A4000104D0124F855012480B500AF40220A490A4809F0C9F8402209490A4809F07AF94B
:204A6000FBF7EAFEFCF750FCFEF7E4FBFEF700F9FFF79EFD00BF80BD00010024041200246F
:204A8000000000249C12002480B483B000AF7860074B01221A70074B00221A80064B0022B2
:204AA0001A8000BF0C37BD465DF8047B704700BF68140024144D0124164D012480B483B0F8
:204AC00000AF7860074B02221A70074B10221A80064B20221A8000BF0C37BD465DF8047B2B
:204AE000704700BF68140024144D0124164D0124254A264B1178D3ED006AA9B9DFED247A33
:204B0000F4EEE76AF1EE10FA31DBF5EE006A0121BDEE007A1170F0EE667AC3ED006A80ED13
:204B2000007AC0ED017A7047DFED1A7AF4EEE76AF1EE10FA0CD99FED187A76EEC77A37EED3
:204B4000667AC3ED007A80ED007AC0ED017A7047FDEE006A0021B5EE007A1170F0EE667AB3
:204B6000C3ED006A80ED007AC0ED017A7047DFED0A7A76EEA77AB1EE677AC3ED007AC0ED29
:204B8000017A80ED007A7047102B0424142B0424DBF97E3EDBF97EBE6F12833A2DE9704F7F
:204BA0002DED068B88B00446FEF758FAC649C74BB3EE007AD1ED007AC54A1B7827EE870AC5
:204BC000C2ED007A002B40F07181C24BC249D3ED006AD1ED007AE6EE877AC04AC048C1ED50
:204BE000007AD2ED007A016877EE807ABD4B022993ED007AC2ED007A00F05E81B54AF3EE35
:204C0000006AF0EE477A92ED006AE6EE267AC3ED007AFFF735FAB44DFCF736FEFEF7ACFF17
:204C2000B24EFEF7C9FE601CDFF80CB305EB8003DFEDAF8A06EB80069FEDAE9A1D468033CD
:204C40009FEDAD8A019320E0AC4B01221A709AF80030002B40F01D81A94B08359FEDA96ACE
:204C60000836D3ED007A019B67EE867A9D4227EE877A67EEA67ABDEEC77AFDEEE77A05ED37
:204C8000027A45ED037A00F00C81DBF80030002B40F007819C4CDFF8A4E294ED006AD4ED95
:204CA000015A9A4B9A4A75EEC64A9EED005AD2ED006AD3ED007AA4EEA66A964B77EEC57AEE
:204CC0009548E4EEE65A93ED007AD6ED006AC7FEA87AC7FEC97A77EE857ADFF864A2F8EEA8
:204CE000E66A93ED014A27EE087ADFF858C267EE869A8A4B90ED002A27EEA5AADCED001AD9
:204D000024EE084AE6EEC79A9AED007A16ED015AD3ED006A37EE427AF8EEC53A804B76EE7C
:204D2000E16ACEED007A87FE287A87FE497A37EE027A93ED001AA3EE84AAC6FEA86AB0EE16
:204D4000694AC6FEC96A76EEA16ADFF8FCE180ED007ADFF8F891A6EE414A7248CCED006A43
:204D60007149724A9EED006ADFF8E481DFF8E4E1DFF8E4C199ED005AD0ED007A02A891ED35
:204D8000003AD2ED004A77EEC57AD8ED002ADEED006A9CED007A36EE626A76EEC36AC7FEBF
:204DA000A87A37EE647AC7FEC97A77EE857A86FE286AC6FEA86A86FE496AC6FEC96A36EE24
:204DC000226A76EE836A87FE287A87FE497A37EE247AC9ED007AF0EE4A7AC1ED006ACDED20
:204DE000029A8DED044A88ED006A82ED007A8DED03AA93ED017ADFF864A1E7EE657ACDED1B
:204E0000057AFEF73DF9F7EE006A99ED007A9AF80030C6EE877A69EEA79A67EE8A7ACDED77
:204E2000029ACDED037A13B100230393029398ED000A04A8FCF7E4FA3D4BDFF8248106A9CE
:204E40001A6802A85B6806920793FFF7D7FB4046FDF7EAFF98ED007AF7EE007AD8ED016A78
:204E6000B0EEC76A84ED007AC4ED016AB4EEE76AF1EE10FA3FF7E8AEB0EEE66AB4EEE76AD3
:204E8000F1EE10FA3FF7E0AE9AF80030002B3FF4E3AE1D48FFF72CFE94ED007AD4ED016A08
:204EA000DAE608B0BDEC068BBDE8708F0A49D1ED007A70EE277A90E61E4A1268012A3FF759
:204EC0009DAE70EE077AA2E64C1000242D5701245010002470560124C0290424DC2904244A
:204EE00040570124C4290424000100240000002417B7D1B817B7D138000000305C56012463
:204F0000641000240000004F00560124E4560124DC5501243810002418570124E05601241F
:204F20002457012430100024205701241C57012444570124AC560124084D01241457012448
:204F4000F456012410570124DC560124341000240C570124F8560124FC560124C8560124E2
:204F6000F8550124C54BC648D3ED0C6AC549F5EE406A93ED137AD3ED0B7AD3ED035ABDEEB6
:204F8000C77AF1EE10FA93ED025AFDEEE77A93ED056ABD4AD3ED0A6ADFF8C8C32DE9704F5E
:204FA0002DED0A8BD3ED019A18BF012593ED068A08BF0025C0ED009AF7EE00AAB348D3ED5D
:204FC000078A80ED008AB2481C68C0ED008A93ED089AB0480C6080ED009AD3ED09BAAE498D
:204FE000AE48C1ED005AC0ED00BAAD49AD4882ED005AC0ED007A93ED04CAAB4AAB4881EDCD
:20500000006A17EE101A057082ED00CA01F00F01A74AA848CCED006A0160A749DFF848E3F1
:20502000DFF848B3DFF84893D2E90084C1F80080956893ED107AD3ED127AA049B5EE407ADB
:205040009F4B48681D600028C9F80040D2E90336D4BF00220122CEF80030F1EE10FADFF88E
:2050600014E3F5EE407ACBF80020CEF8006018BF4FF0010ADFF800E308BF4FF0000ADFF8D1
:20508000FCB2F1EE10FACEF800208A68CBF80020DFF8ECB28BF800A018BF4FF0010BDFF82D
:2050A000E4A208BF4FF0000B8AF800B0002E40F015823AEEE67A9FED834AFFEE007A9FED5E
:2050C00082AAE6EEC4AA67EE076AF3EE064AE7EE267AA7EEA4AA1AB1F5EE007A6AEEA7AA42
:2050E000C9680128794A1160D8BF0021784AC8BF01211160002D40F0DB81156075490A6830
:2051000093420AD00B6074490A60744A13600022734B1A600022734B1A70734AF7EE007A3D
:205120009FED9CBA13689E42704B18BF1660002E1B6807FE8BBA002B00F0B781B4EE001A20
:20514000F6EE000AB0EE690AFBF786FC684B29EE099A684883ED000A674B83ED005A674B17
:20516000C3ED005A664B83ED006AFDF7F9FBCCEE007ADFED886AB7EE007A67EE8B7AC7FE82
:20518000A67AC7FEC77A0EB1B2EE08AA5D4BB0EE000A5D4EF0EE4A0AC3ED007A5B4BDFF804
:2051A000E8A183ED009A5A4B86ED008AC3ED00BA584BCAED008A83ED00AA09F015FEF7EE61
:2051C000007A554B55484FF0010C554A30EE670AC0ED00AA87EEAA7A5248116883ED000A21
:2051E000514BC7EE806A80ED007A504880F800C04F48C3ED006AB1FA81F35B090370002DE9
:2052000000F05D81032D00F05A815368002B494B14BF624600221A7002D00424C9F8004029
:20522000454A1368A34207D01460444A13600022434B1C60434B1A60434A1368984509D041
:20524000C2F80080414A13600022414BC3F80080404B1A60B8F1000F02D0002900F0BA804B
:20526000F7EE007A032CDFED3C6ADFED3C5A77EEE87A9FED3B6A46FEA56A97E0B411002421
:20528000241000242010002428100024A8550124AC550124B055012498550124B455012454
:2052A000A0550124D45501249C550124BC5601245455012458100024B056012468550124D2
:2052C000C4560124FA7E2A3F00000042A8560124D855012484560124885601248C560124EE
:2052E000D05601245C5601247856012440570124DC5601247CDC0324E0560124F45601243D
:20530000E8560124E4560124EC560124FC560124F8560124085601240C56012414560124E1
:205320007C5501241856012410560124481000243C5501245C100024905601249856012479
:205340009C560124A0560124AC560124B4560124B8560124D8560124B81EC53E9A99193EDC
:20536000A4707D3FA45501248056012464560124945601247C56012460560124A456012465
:205380002C5701242D570124F05601240AD7233C8988083E00000000CDCC4C3D6666863F07
:2053A00000002043CDCCCC3D3EC3AE3768EEA68A1FED0A7A012D77EEA67AC8EEA76AA6EEDE
:2053C000867A00F09280C4BF5FED0F7A27EE277A8AED007AF7EE007A1FED126A5FED126A1D
:2053E0001FED127A88FE068A88FE678A68EE266A37EE487A5FED165A5FED167A1FED166A97
:20540000C6EE878A544B86ED008AE8EEA57A67EE867AC3ED007A002C55D0012C6CD04F4B63
:20542000B0EE480A0120D3ED000AFBF74FFD4C4B83ED000ADFED4B6A70EE007A9FED4A7A99
:20544000F0EE690A494BA8EE267A494A9FED490AC2ED007A83ED007A09F0C6FCDFED467A65
:2054600087EE800A09F0CEFB444BDFED456AD3ED007A9FED447A67EEA66A434A37EE677AE5
:20548000424BB7EE006ADFED425AC6EE877A36EE400ABDEC0A8B82ED000AC7FEA57AC7FE85
:2054A000C67AC3ED007ABDE8708FB0EE690A4DE601287FF723AE0022CEF800201EE6354B9E
:2054C00000221A70ACE63449254A91ED007A87EE870A83ED000A82ED000AABE74FF0000AD6
:2054E0009FED2EAACCF800A0F5E5DFED2D7A27EE277A8AED007A6DE7B8F1000FE3D0012D03
:205500001DD015DCBDB9154BB6EE000A0120D3ED000AFBF7DBFC124B83ED000AB3EE027A81
:20552000204BF0EE007AE8EE877AC3ED007A81E7023D012DE7D90A4B93ED000AEEE7074B0C
:2055400028469FED190AD3ED000AFBF7BFFC044B83ED000AE2E700BFCC550124F84C0124B7
:20556000D05501241DB2013B2829B03708570124045701240000C843AAAA2ABC1C570124BD
:205580008FC2F53D295C8F3F3C57012400570124000000005C1000244C10002400000042AF
:2055A000CDCC4C3E441000242549923E2DE97841092004F017FA002840F0C7804FF0605384
:2055C0006D4C6E4993F8B00022780870002A00F0C5806B4A1168526819655A65694B4FF097
:2055E0006050694A1D685B688565C3651378674907EE903A664D09780023F8EE677A2D7831
:20560000C0ED187A07EE901A6249F8EE677A1370614AC0ED197A80F8B25009685F4DC0F87D
:20562000B81012682946C0F8BC209A00013302F16052142B126841F8042BF6D1836E584938
:20564000584A0B60C36FDFF89C811360564BD0F890601E60C66E4E60D0F880605660D0F8C5
:2056600094605E60066F8E60D0F884609660D0F898609E60466FCE60D0F88860D660D0F824
:205680009C60DE60866F0E61D0F88C101161D0F8A02046491A61D0F8B420C8F80020D0F8C0
:2056A000C030C3F380030B70D0F8C0304049C3F340030B70D0F8C030DB0702D53D4B022175
:2056C00019603D4E33689A4206D0FEF74FF93B4A0021D8F80030116039493A4A33600B6819
:2056E00000211170002B42D0AE6BE96BD5ED117A354BFDEEE77A354859604FF060511E60A1
:2057000017EE902A324D02F07F03D211C3F154032A60302BA8BF302323EAE373036091F8FB
:20572000B130DBB22370FBB9D1F8A4404FF060522848294B002104600920D2F8A8401C6056
:20574000D2F8AC205A6004F067F90A2004F04AF900210A20BDE8784104F05EB91F4A1168AE
:20576000526819655A6539E74FF07E54DEE71C4B19680E46BAE700BFC85601246D56012475
:20578000445601244C56012474560124D9290424BD560124B829042440570124B411002484
:2057A00054550124685501247C550124C1550124C0550124104D01249455012414110024F5
:2057C0007856012448100024245701243457012438570124301000243810002454560124B7
:2057E0009C5501249055012480B588B000AF3B1D00221A605A609A60DA6001F083F80123FB
:205800003B7100237B714FF04043BB6019233B730323FB730023FB740023BB7400237B747C
:205820000123BB7300237B7301233B743B1D184601F0A0F801237B714FF06053BB600F23A4
:205840003B7301237B743B1D184601F093F802237B714FF01053BB6012233B730123BB7451
:205860000123FB7400237B743B1D184601F082F803237B714FF01053BB600B233B73002394
:20588000BB740023FB7401237B743B1D184601F071F8042001F04EF8334B5B6903F400335D
:2058A000002B1BD1BFF34F8F00BFBFF36F8F00BF2D4B0022C3F85022BFF34F8F00BFBFF34B
:2058C0006F8F00BF284B5B69274A43F400335361BFF34F8F00BFBFF36F8F00E000BF224B3A
:2058E0005B6903F48033002B38D11F4B0022C3F88420BFF34F8F00BF1B4BD3F88030FB618F
:20590000FB695B0BC3F30E03BB61FB69DB08C3F309037B61BB695A0143F6E07313407A69B4
:20592000920711491343C1F860327B695A1E7A61002BEFD1BB695A1EBA61002BE5D1BFF367
:205940004F8F00BF084B5B69074A43F480335361BFF34F8F00BFBFF36F8F00E000BF00BF47
:205960002037BD4680BD00BF00ED00E080B588B000AF00F05BFB4FF6FF73FB6100BF814B04
:205980001B6803F40043002B04D0FB695A1EFA61002BF4DCFB69002B01DA00F073FB00F061
:2059A000DFFD00F02BF900F0D9F9764BD3F8E030744A43F00073C2F8E030724BD3F8E030D3
:2059C00003F000733B613B69002004F00BF80021002004F021F84FF6FF73FB6100BF694B36
:2059E0001B6803F40043002B04D1FB695A1EFA61002BF4DCFB69002B01DA00F043FB00F030
:205A000037FA00F0ADFA00F0DBF900F059FA41F2883000F037FEFFF7E7FE5B495B48FAF794
:205A2000ADFEFFF711F85A4B5A4A1A605A4B5B4A1A605B4B5B4A1A605B4B4FF000021A600F
:205A40005A4B4FF000021A60594B4FF000021A60584B4FF000021A60574B4FF000021A60CC
:205A6000564B4FF000021A60554B4FF000021A60544B4FF000021A60534B4FF07E521A60EE
:205A80000023BB610EE0514ABB699B001344504A1A60504ABB699B0013444D4A1A60BB692F
:205AA0000133BB61BB69012BEDDD00237B6109E0494A7B699B0013444FF07E521A607B69BE
:205AC00001337B617B69132BF2DD0A2003F08AFF00210A2003F0A0FF404B1B68BB603F4B8F
:205AE0005B68FB603E4B1B683B603D4B5B687B603C4B1B78002B24D03B4B1B68002B06D177
:205B00003A4B1B680133394A1360FFF72BFA364B1B68591C364B83FB01231A11CB17D21AA3
:205B200013469B001344DB00CA1A2F4B1A60314B1B881846FFF732F8FFF738FD294B002209
:205B40001A702D4B1B68002B07D13A4607F1080311461846FEF770FCBEE7274B1B68012B5E
:205B600002D1FEF787F9B7E7234B1B68022B02D1FEF700FAB0E7204B1B68052BACD1FEF738
:205B800047F9A9E700440258581400242414002420100024CDCC4C3F24100024CDCCCC3D39
:205BA00028100024C3F5283E985501249C550124A0550124A4550124A8550124AC550124C3
:205BC000B0550124B45501242C10002444560124ACC527374C560124B4110024E055012475
:205BE000E8550124681400246C1400246856012467666666164D0124084D012480B59EB0FE
:205C000000AF07F12C034C220021184608F030FF07F10C0320220021184608F029FF022090
:205C200003F00EFF0023BB60494BDB6A484A23F00103D362464BDB6A03F00103BB60454BF7
:205C40009B69444A43F440439361424B9B6903F44043BB60BB6800BF3E4B9B6903F4005325
:205C6000B3F5005FF8D13C4BD3F8F4303A4A43F00203C2F8F430384BD3F8F43003F00203DA
:205C80007B607B6800233B60324B9B69314A43F4404393612F4B9B6903F440433B602C4BD4
:205CA000DB6A2B4A43F00103D362294BDB6A03F001033B603B6800BF264B9B6903F4005352
:205CC000B3F5005FF8D10223FB620123BB634023FB6302233B6500237B650423BB653C2301
:205CE000FB6502233B6605237B660223BB660C23FB6600233B6700237B6707F12C03184650
:205D000003F0F8FE0346002B01D000F0BBF93F23FB6003233B6100237B610823BB61402389
:205D2000FB6140233B624FF480637B624023BB6207F10C030421184604F036FB0346002B61
:205D400001D000F09FF900BF7837BD4680BD00BF00040058004802580044025880B5B2B04A
:205D600000AF3B46C8220021184608F081FE134A4FF00003C7E900232023BB608123FB6044
:205D800002233B6102237B610223BB614023FB6100233B6200237B620023BB650123FB65BA
:205DA0003B46184604F076FE0346002B01D000F069F900BFC837BD4680BD00BF00010080C7
:205DC00080B500AF264B274A1A60254B02225A60234B00229A60224B00225A61204B0022D4
:205DE000DA611F4B0022DA601D4B0022DA621C4B00221A631A4B00225A6302230322002127
:205E0000174807F085FB0346002B01D000F03AF9154B164A1A60144B03225A60124B01224C
:205E20009A60114B00225A610F4B0022DA610E4B0022DA600C4B0022DA620B4B00221A6319
:205E4000094B00225A63022303220021064807F05FFB0346002B01D000F014F900BF80BDC7
:205E600004120024045801409C1200242458014080B582B000AF114BD3F8D8300F4A43F0EB
:205E80000103C2F8D8300D4BD3F8D83003F001037B607B68002200210C2000F0FEFC0C20D7
:205EA00000F015FD002200210D2000F0F6FC0D2000F00DFD00BF0837BD4680BD004402588B
:205EC00080B588B000AF3B1D00221A605A609A60DA601A615A619A611F4B204A1A601E4BDC
:205EE00000225A601C4B01229A601B4B0822DA60194B10221A61184B40225A61164B4FF443
:205F0000C0729A61144B0022DA61134B4FF400621A62114B00225A620F4B4FF400529A62F4
:205F200002237B600823BB600823FB6008233B6106237B610623BB610323FB613B1D19464B
:205F4000054808F0F9FB0346002B01D000F09AF800BF2037BD4680BD2414002440410052BC
:205F600080B487B000AF304BD3F8E0302E4A43F01003C2F8E0302C4BD3F8E03003F01003D1
:205F80007B617B69284BD3F8E030274A43F02003C2F8E030244BD3F8E03003F020033B6166
:205FA0003B69214BD3F8E0301F4A43F00403C2F8E0301D4BD3F8E03003F00403FB60FB688E
:205FC000194BD3F8E030184A43F00103C2F8E030154BD3F8E03003F00103BB60BB68124B52
:205FE000D3F8E030104A43F04003C2F8E0300E4BD3F8E03003F040037B607B680A4BD3F8E4
:20600000E030094A43F00803C2F8E030064BD3F8E03003F008033B603B6800BF1C37BD4698
:206020005DF8047B704700BF0044025880B584B000AF3B4600221A605A609A60DA6000F065
:2060400061FC01233B7000237B7000237B601F233B7287237B720023BB720023FB7201237E
:206060003B7301237B730023BB730023FB733B46184600F07FFC042000F05CFC00BF1037C2
:20608000BD4680BD80B400AF72B600BF00BFFDE780B483B000AF0A4BD3F8F430084A43F074
:2060A0000203C2F8F430064BD3F8F43003F002037B607B6800BF0C37BD465DF8047B704777
:2060C0000044025880B5BAB000AF07F1D40300221A605A609A60DA601A615B4B1B68002BAC
:2060E00040F0AE80584B01221A6007F10803C8220021184608F0BCFC4FF080724FF0000373
:20610000C7E9022300233B6507F10803184604F0C1FC0346002B01D0FFF7B4FF4B4BD3F886
:20612000D4304A4A43F48053C2F8D430474BD3F8D43003F480537B607B684FF63F03C7F8D0
:20614000D4300223C7F8D8300023C7F8DC300323C7F8E0300C23C7F8E43007F1D40319463C
:206160003B4803F08FFA0C23C7F8D4300223C7F8D8300023C7F8DC300323C7F8E0300C2330
:20618000C7F8E43007F1D4031946324803F07AFA8023C7F8D4300223C7F8D8300023C7F8E9
:2061A000DC300323C7F8E0300C23C7F8E43007F1D4031946284803F065FA48F23713C7F8A9
:2061C000D4300223C7F8D8300023C7F8DC300323C7F8E0300C23C7F8E43007F1D4031946BC
:2061E0001E4803F04FFA4FF68373C7F8D4300223C7F8D8300023C7F8DC300323C7F8E03030
:206200000C23C7F8E43007F1D4031946144803F039FA4CF20373C7F8D4300223C7F8D83069
:206220000023C7F8DC300323C7F8E0300C23C7F8E43007F1D40319460A4803F023FA00E009
:2062400000BFE837BD4680BD182B042400440258001402580008025800000258001802587B
:2062600000100258000C025880B582B000AF7860FFF728FF00BF0837BD4680BD80B58AB096
:2062800000AF78607B681B686D4A934267D16D4B1B68002B16D16C4BD3F8F0306A4A43F473
:2062A0008003C2F8F030684BD3F8F03003F480033B613B6900220021572000F0EEFA572020
:2062C00000F005FB5F4B1B6801335E4A136070237B610223BB610023FB6100233B6206233A
:2062E0007B6207F114031946584803F0CBF9584B584A1A60564B57225A60554B40229A606D
:20630000534B0022DA60524B4FF480621A61504B4FF480525A614E4B4FF480429A614C4BAB
:206320004FF48072DA614A4B00221A62484B00225A62474800F05EFB0346002B01D0FFF736
:20634000A1FE7B68424AC3F88420414A7B6893637B683F4AC3F880203D4A7B6893637B6862
:206360001B683D4A934267D1364B1B68002B16D1354BD3F8F030344A43F48003C2F8F03073
:20638000314BD3F8F03003F48003FB60FB6800220021572000F081FA572000F098FA294BCC
:2063A0001B680133274A136040237B610223BB610023FB6100233B6206237B6207F114036E
:2063C0001946264803F05EF9254B264A1A60244B58225A60224B00229A60214B0022DA6058
:2063E0001F4B4FF480621A611D4B4FF480525A611B4B4FF480429A61194B4FF48072DA6121
:20640000174B00221A62164B00225A62144800F0F1FA0346002B01D0FFF734FE7B68104A5C
:20642000C3F884200E4A7B6893637B680C4AC3F880200B4A7B68936300BF2837BD4680BDAC
:20644000045801401C2B042400440258001002583413002428000240245801400014025828
:20646000AC1300244000024080B400AF00BFFDE780B400AF00BFFDE780B400AF00BFFDE725
:2064800080B400AF00BFFDE780B400AF00BFFDE780B400AF00BFBD465DF8047B704780B48C
:2064A00000AF00BFBD465DF8047B704780B400AF00BFBD465DF8047B704780B500AF00F0DC
:2064C000C1F800BF80BD000080B500AF024801F0BBFD00BF80BD00BF3413002480B500AF26
:2064E000024801F0B1FD00BF80BD00BFAC13002480B500AF034807F0C1FC034807F0BEFC36
:2065000000BF80BD041200249C120024DFF834D0FAF79EF80C480D490D4A002302E0D458DF
:20652000C4500433C4188C42F9D30A4A0A4C002301E013600432A242FBD308F0A7FAFFF702
:2065400015FA704700000824001000249811002480090108981100245C2C0424FEE7000054
:2065600080B582B000AF032000F08CF904F0D2F80246154B9B691B0A03F00F031349CB5C56
:2065800003F01F0322FA03F37B600F4B9B6903F00F030E4AD35C03F01F037A6822FA03F306
:2065A0000B4A13600B4A7B6813600F2000F014F80346002B01D0012302E0FFF769FD002373
:2065C00018460837BD4680BD004402581CFC0008041000240010002480B582B000AF7860C6
:2065E000154B1B78002B01D1012321E0134B1A68114B1B7819464FF47A73B3FBF1F3B2FBE9
:20660000F3F3184600F071F90346002B01D001230EE07B680F2B0AD8002279684FF0FF3015
:2066200000F03BF9064A7B681360002300E0012318460837BD4680BD4411002400100024DF
:206640004011002480B400AF064B1B781A46064B1B681344044A136000BFBD465DF8047B1C
:20666000704700BF44110024202B042480B400AF034B1B681846BD465DF8047B704700BF59
:20668000202B042480B584B000AF7860FFF7EEFFB8607B68FB60FB68B3F1FF3F05D00A4BEF
:2066A0001B781A46FB681344FB6000BFFFF7DEFF0246BB68D31AFA689A42F7D800BF00BF5D
:2066C0001037BD4680BD00BF4411002480B400AF034B1B681B0C1846BD465DF8047B704734
:2066E0000010005C80B485B000AF78607B6803F00703FB600B4BDB68BB60BA684FF6FF03E6
:206700001340BB60FB681A02BB681A43064B1343BB60044ABB68D36000BF1437BD465DF844
:20672000047B704700ED00E00000FA0580B400AF044BDB681B0A03F007031846BD465DF80A
:20674000047B704700ED00E080B483B000AF0346FB80B7F90630002B0BDBFB8803F01F02CE
:206760000749B7F906305B09012000FA02F241F8232000BF0C37BD465DF8047B704700BFA5
:2067800000E100E080B483B000AF03463960FB80B7F90630002B0ADB3B68DAB20C49B7F99B
:2067A00006301201D2B20B4483F800230AE03B68DAB20849FB8803F00F03043B1201D2B257
:2067C0000B441A7600BF0C37BD465DF8047B704700E100E000ED00E080B489B000AFF86048
:2067E000B9607A60FB6803F00703FB61FB69C3F10703042B28BF0423BB61FB690433062BA3
:2068000002D9FB69033B00E000237B614FF0FF32BB6902FA03F3DA43BB681A407B699A403E
:206820004FF0FF317B6901FA03F3D9437B680B40134318462437BD465DF8047B704700002D
:2068400080B582B000AF78607B68013BB3F1807F01D301230FE00A4A7B68013B53600F214B
:206860004FF0FF30FFF78EFF054B00229A60044B07221A60002318460837BD4680BD00BF0A
:2068800010E000E080B582B000AF78607868FFF729FF00BF0837BD4680BD80B586B000AFE4
:2068A0000346B9607A60FB81FFF740FF78617A68B9687869FFF790FF0246B7F90E3011461C
:2068C0001846FFF75FFF00BF1837BD4680BD80B582B000AF0346FB80B7F906301846FFF7A4
:2068E00033FF00BF0837BD4680BD80B582B000AF78607868FFF7A4FF034618460837BD46D8
:2069000080BD000080B400AFBFF35F8F00BF074B5B6A064A23F480335362054B00225A60E6
